:020000021000EC
:10F0000000000120A5830200CD830200CF8302000F
:10F01000D1830200D3830200D583020000000000E8
:10F02000000000000000000000000000D783020084
:10F03000D983020000000000DB830200DD830200B0
:10F04000E1160200DF830200612102008D1F020031
:10F05000A11F0200DF830200811A0200DF83020089
:10F06000DF830200DF830200DF830200DF83020010
:10F07000DF830200DF830200DF830200DF83020000
:10F08000DF83020095FD0100DF830200DF830200C1
:10F09000BDFD0100DF830200098A0200DF83020058
:10F0A000DF830200DF830200DF830200DF830200D0
:10F0B000DF830200DF830200000000000000000088
:10F0C000DF830200DF830200DF830200DF830200B0
:10F0D000DF830200DF830200DF8302000000000004
:10F0E0000000000000000000000000000000000020
:10F0F0000000000000000000000000000000000010
:10F1000000000000000000000000000000000000FF
:10F1100000000000000000000000000000000000EF
:10F1200000000000000000000000000000000000DF
:10F1300000000000000000000000000000000000CF
:10F1400000000000000000000000000000000000BF
:10F1500000000000000000000000000000000000AF
:10F16000000000000000000000000000000000009F
:10F17000000000000000000000000000000000008F
:10F18000000000000000000000000000000000007F
:10F19000000000000000000000000000000000006F
:10F1A000000000000000000000000000000000005F
:10F1B000000000000000000000000000000000004F
:10F1C000000000000000000000000000000000003F
:10F1D000000000000000000000000000000000002F
:10F1E000000000000000000000000000000000001F
:10F1F000000000000000000000000000000000000F
:10F2000010B5054C237833B9044B13B10448AFF360
:10F2100000800123237010BDE02F002000000000BB
:10F220007C9F02000C4B43B10C480D4910B5AFF365
:10F2300000800C48036823B910BD0A48036833B93D
:10F240007047094B002BF7D0BDE810401847064B1C
:10F25000002BF5D0184700BF000000007C9F020083
:10F26000E42F0020CC2F002000000000154B002BC5
:10F2700008BF134B9D46A3F5803A00218B460F46ED
:10F280001348144A121A00F063F80F4B002B00D0F9
:10F2900098470E4B002B00D0984700200021040017
:10F2A0000D000D48002802D00C48AFF3008000F09C
:10F2B0002BF82000290004F0DFFD00F011F800BF5A
:10F2C0000000080000000120000000000000000015
:10F2D000E02F00200040002000000000000000009F
:10F2E00008B5074B044613B10021AFF30080054B6E
:10F2F0001868836A03B19847204600F031F800BFD0
:10F3000000000000BC9C020070B50D4E0D4CA41B0B
:10F31000A4100025A54209D10B4E0C4C0AF0C2FCEA
:10F32000A41BA4100025A54205D170BD56F82530B8
:10F3300098470135EEE756F8253098470135F2E752
:10F34000C42F0020C42F0020C42F0020C82F00206D
:10F3500002440346934200D1704703F8011BF9E7CA
:10F36000FEE700BF70B5002401E00134E4B2184BA1
:10F370001B789C422BD2174B1D6805EBC40615F871
:10F38000340001238340144A12681342EDD022EA6C
:10F390000303114A136002F069FB15F834200123BE
:10F3A00093400E4909680B4000FA02F18B42DCD110
:10F3B0007178012914BF00210121884214BF002166
:10F3C00001217368002BD0D010469847CDE770BD5F
:10F3D000FC2F00202C30002028300020243000207A
:10F3E00038B5054601248440124800F04FFD38B975
:10F3F000114B1B681C4204D023EA04040E4B1C6012
:10F4000038BD284602F032FB70B10C4A1368234322
:10F410001360094A13681C4314600022084B1968E2
:10F42000044800F015FD38BD044A136823EA0403BC
:10F430001360EEE704300020283000202430002044
:10F4400000300020042A02D807231846704770B500
:10F4500082B006460D46144602F044FA20B31A4B19
:10F460001E601A4B1D701A4B1C600023194A136052
:10F47000194A13606C1EE4B2E5B106EBC403032223
:10F480008DF8042000228DF806208DF807209B7847
:10F490008DF80530114A01A916F8340002F02CFA53
:10F4A000034668B92546E5E702F0E6F90346002879
:10F4B000D5D005E00A4A00210A4800F0B3FC034613
:10F4C000184602B070BD00BF2C300020FC2F002079
:10F4D000003000202430002028300020E1F301001B
:10F4E00065F30100C09C020010B5002407E0074B43
:10F4F0001B68012113F8340002F054FA0134044B64
:10F500001B789C42F3D3002010BD00BF2C3000209C
:10F51000FC2F002000B585B0ADF8041002920390D6
:10F5200001AA002144F2010004F0DEFC05B05DF800
:10F5300004FB000082B001238DF807309DF80730EE
:10F54000134B186059609A6044F20103984213D03B
:10F5500044F20203984207D10D4BDA60DA68128850
:10F560009A61DA685268DA6172B69DF80730002B4A
:10F57000FBD162B602B07047054B1A611A699268F6
:10F580005A611A6912889A611A695268DA61EBE75E
:10F5900030300020034BC3F80805E022024B83F80B
:10F5A000112370470010014000E100E010B4114B3E
:10F5B0001C682CB1026823689A4203D923460AE0EA
:10F5C000186013E09A1A2260C4610A4B18600DE0BB
:10F5D000521A1C46DB6913B119688A42F8D813B174
:10F5E0001968891A19600260C361E0615DF8044B13
:10F5F000704700BF70310020364B19680B460A4631
:10F6000023B1834202D01A46DB69F9E7002B5ED0B2
:10F6100030B49A420DD01868DB69D36113B11A680F
:10F6200002441A602B4B1868401A18BF012030BCE6
:10F630007047C869274C20600028ECD10120264C77
:10F64000A0600025254C2560254C207025480468C5
:10F650002F20254D00BF00BF00BF00BF00BF00BF6F
:10F6600000BF00BFAC422FD000BF00BF00BF00BF33
:10F6700000BF00BF00BF00BF00BF00BF00BF00BF92
:10F6800000BF00BF00BF00BF00BF00BF00BF00BF82
:10F6900000BF00BF00BF00BF00BF00BF00BF00BF72
:10F6A00000BF00BF00BF00BF00BF00BF00BF00BF62
:10F6B00000BF00BF00BF00BF00BF00BF00BF00BF52
:10F6C00000BF00BF00BF00BF0138C3D1A3E70020C7
:10F6D000704700BF70310020001001406C310020E5
:10F6E0005C310020C02F00200024F4004FF40032D1
:10F6F000014BC3F80021704700E100E04FF4801295
:10F70000014BC3F80021704700E100E008B54369F0
:10F710008069984708BD00001B4B1868002832D04C
:10F7200070B51A4BD3F80445194B1B68E41A24F042
:10F730007F44002500E0304668B103689C420AD34C
:10F74000E41A1D44C669037C002BF4D00023037423
:10F75000FFF7DCFFEFE70F4B1A780F4B1B789A424D
:10F7600007D00D4B1A780D4B43F82250FFF7C6FF18
:10F7700070BD0133DBB2084A1370022BF1D10022B5
:10F78000054B1A70EDE77047703100200010014002
:10F790006C31002068310020693100206031002088
:10F7A000104B1B78104A1278934217D00133DBB20A
:10F7B0000C4A1370022B0DD00A4B1A780B4B53F8DE
:10F7C000223003600A4A11680B4423F07F43136020
:10F7D000012070470022034B1A70EDE700230360FD
:10F7E00018467047683100206931002060310020E0
:10F7F0006C31002070B400250E4B1B68BBB11C6837
:10F80000A04212D3001B254400241C60DE69094C71
:10F810002660DC68002CEFD06E1826F07F465E6014
:10F820009C601468DC611360E6E7241A1C6070BCFD
:10F83000704700BF70310020F8B50546414B1F6886
:10F84000002659E0404A11784B1CDBB213709278C5
:10F85000934228D04A000A44D0003B4B03449C68A2
:10F860001B79022B23D0032B30D0012B44D1237CD6
:10F87000002B41D1DFF8D0E04A005018C300734498
:10F88000D86860601869A0605B69E3601144CB00D0
:10F890009E44DEF81830A3612C4B1B78002B30D02F
:10F8A000002363602DE00022274B1A70D2E7204628
:10F8B000FFF7A2FE034600B93346002222741E461B
:10F8C0001AE000221A74DA691E4B1A601D4B1B687D
:10F8D000002BF6D110E0521A22F07F42A368934227
:10F8E0001CD99A1A226000236360A360012222744B
:10F8F000E3612046FFF75AFE9DB1002DA2D02C46B1
:10F90000ED696168124B1A688B1A23F07F43114826
:10F910008342E0D8A26813442360E4E70023236015
:10F92000E1E7094B1A785B789A42E6D12EB9054B8C
:10F930001B689F4203D00120F8BD0120F8BD0020C4
:10F94000F8BD00BF70310020503000205C31002035
:10F950006C310020FEFF7F00014B5870704700BFE4
:10F96000503000200B4A53780133DBB29278934237
:10F970000CD0084A127893420AD0037005484378A5
:10F9800003EB4303DA001044043070470023F0E730
:10F990000020704750300020F0B583B007460E4677
:10F9A00015461C4602A8002300F8023D00F084FA28
:10F9B0000DF10700FFF7D6FFB0B1012202704760DA
:10F9C0000C4AD2F804258260C660056144619DF846
:10F9D0000700FFF7C1FF00249DF8060000F098FA29
:10F9E00024B1204603B0F0BD0424F5E7FFF786FEFE
:10F9F000F7E700BF0010014030B583B004460D4664
:10FA000002A8002300F8023D00F056FA0DF10700AD
:10FA1000FFF7A8FF70B1057044609DF80700FFF77D
:10FA20009BFF00249DF8060000F072FA24B12046E6
:10FA300003B030BD0424F5E7FFF760FEF7E70000F0
:10FA4000284B4FF48032C3F84423C3F80423264ADA
:10FA50004FF40031C2F88011116001221A60234B6B
:10FA600019682F23224800BF00BF00BF00BF00BF9E
:10FA700000BF00BF00BF81422FD000BF00BF00BF4A
:10FA800000BF00BF00BF00BF00BF00BF00BF00BF7E
:10FA900000BF00BF00BF00BF00BF00BF00BF00BF6E
:10FAA00000BF00BF00BF00BF00BF00BF00BF00BF5E
:10FAB00000BF00BF00BF00BF00BF00BF00BF00BF4E
:10FAC00000BF00BF00BF00BF00BF00BF00BF00BF3E
:10FAD00000BF00BF00BF00BF00BF013BC3D1054B4B
:10FAE0001A7070470010014000E100E0C02F0020B4
:10FAF0000024F4005D31002070B44FF400324A4B12
:10FB0000C3F8802002F18042A2F570424FF48033A6
:10FB1000C2F84833C2F808330124546043480668E9
:10FB200043492F231D4600BF00BF00BF00BF00BFD9
:10FB300000BF00BF00BF8E422FD000BF00BF00BF7C
:10FB400000BF00BF00BF00BF00BF00BF00BF00BFBD
:10FB500000BF00BF00BF00BF00BF00BF00BF00BFAD
:10FB600000BF00BF00BF00BF00BF00BF00BF00BF9D
:10FB700000BF00BF00BF00BF00BF00BF00BF00BF8D
:10FB800000BF00BF00BF00BF00BF00BF00BF00BF7D
:10FB900000BF00BF00BF00BF00BF013DC3D19460E4
:10FBA0000022244C2260006800BF00BF00BF00BFDD
:10FBB00000BF00BF00BF00BF88422FD000BF00BF02
:10FBC00000BF00BF00BF00BF00BF00BF00BF00BF3D
:10FBD00000BF00BF00BF00BF00BF00BF00BF00BF2D
:10FBE00000BF00BF00BF00BF00BF00BF00BF00BF1D
:10FBF00000BF00BF00BF00BF00BF00BF00BF00BF0D
:10FC000000BF00BF00BF00BF00BF00BF00BF00BFFC
:10FC100000BF00BF00BF00BF00BF00BF013BC3D19A
:10FC2000054B1A7070BC704700E100E0C02F002047
:10FC30000024F4006C3100205D310020F8B53A4B0F
:10FC40001B68002B6CD01F68384BD3F80455384B19
:10FC50001C682E1B26F07F460336364B1B78A3B15B
:10FC6000B7422CBFE419A41924F07F442F4BC3F8EA
:10FC70004045D3F804355B1B23F07F430333641BFB
:10FC800024F07F44A34203D8F8BDFFF7D9FEE7E78D
:10FC9000264BD3F80425C3F84025274B1A682F2399
:10FCA000264900BF00BF00BF00BF00BF00BF00BFAC
:10FCB00000BF8A422FD000BF00BF00BF00BF00BFFF
:10FCC00000BF00BF00BF00BF00BF00BF00BF00BF3C
:10FCD00000BF00BF00BF00BF00BF00BF00BF00BF2C
:10FCE00000BF00BF00BF00BF00BF00BF00BF00BF1C
:10FCF00000BF00BF00BF00BF00BF00BF00BF00BF0C
:10FD000000BF00BF00BF00BF00BF00BF00BF00BFFB
:10FD100000BF00BF00BF013BC3D1FFF7E7FCF8BD48
:10FD2000FFF7EAFEB0E700BF70310020001001408D
:10FD30006C3100205D310020C02F00200024F40031
:10FD400070B582B0002301930F4B1E680F4B1D68E6
:10FD50006846FFF725FD044658B90198FFF76CFD8A
:10FD6000034600B9234653B90022094B1A7002B06A
:10FD700070BD01AA31460098FFF73CFDEDE728462B
:10FD8000FFF75CFFF0E700BF6C310020703100200E
:10FD90005C31002008B5084B0022C3F84021C3F8AD
:10FDA0004421C3F84821C3F84C21C3F80021C3F80B
:10FDB0000421FFF7B1FC08BD0010014008B5FFF7B2
:10FDC000BFFF08BD10B5FFF797FE0F4B00241C7056
:10FDD0005C700B229A700D4B1C600D4B1C700D4B10
:10FDE0001C700D4B4FF48012C3F88021E02183F882
:10FDF00014131A602046FFF7CDFB084BD3F80425F7
:10FE0000074B1A60204610BD503000207031002092
:10FE1000683100206931002000E100E0001001405D
:10FE20006C310020094B9B780BB9082070474AB110
:10FE300050B10368187C08B10820704718745974D1
:10FE40005A617047072070470720704750300020E4
:10FE500010B50D4CA4780CB9082010BD80B1042950
:10FE600001D8072010BD436963B1437C012B05D045
:10FE7000002413462246FFF78FFD10BD0C46F8E71D
:10FE8000082010BD082010BD5030002008B5094BD7
:10FE90009B780BB9082008BD38B143693BB10023FA
:10FEA00003740221FFF7A8FD08BD082008BD082043
:10FEB00008BD00BF50300020EFF3108272B6114B26
:10FEC0009B68C3B930B40F4901238B600E4BD3F844
:10FED00080400E4D2C400C60C3F88050D3F8844015
:10FEE0004C604FF0FF31C3F884100023037002B957
:10FEF00062B630BC704701230370002AFAD162B6A3
:10FF0000704700BFA03F002000E100E0FC06FFBDFD
:10FF1000084B9B686BB160B9EFF3108372B6054A6A
:10FF2000106805490860506848600021916003B975
:10FF300062B67047A03F002000E100E0024A13785B
:10FF400018431070704700BFE8310020024A137850
:10FF500023EA000010707047E8310020034B1B7843
:10FF6000184214BF01200020704700BFE831002074
:10FF700038B50546002400E00134072C07D8044BAF
:10FF800053F82430002BF7D028469847F4E738BDC3
:10FF9000803100200378013B052B31D8DFE803F0E6
:10FFA00003060F1E272E00230B70704701230B70D2
:10FFB00003898B818388CB81C3688B607047022360
:10FFC0000B7003898B818388CB81C3688B60037C32
:10FFD000062B14BF002301230B74704703230B70FF
:10FFE000C3888B810389CB81C3688B6070470423EE
:10FFF0000B70C3888B810023CB81704705230B7066
:020000022000DC
:10000000704782884FF6FF739A4203D003881BB96A
:1000100000207047002070470120704770B10A4AE5
:10002000126890420CD3084A526890420AD810F0E5
:10003000030F01D000207047012070470020704757
:100040000020704700207047D02F002000238B42F3
:1000500006D250F8332012F0030F03D10133F6E734
:1000600001207047002070470268094B9A4201D076
:10007000032070474368074A934206D001329342F7
:1000800001D101207047032070470020704700BF56
:10009000DEC0ADDEFE011EF10023B3F5806F06D297
:1000A00050F82320B2F1FF3F03D10133F5E70120DF
:1000B0007047002070470000074B03EB00100389D6
:1000C0001944408910FA81F080B2B0F5806F2CBFDE
:1000D00000200120704700BF78320020002301E09B
:1000E00001339BB2012B0CD8074A02EB0312526872
:1000F0008A42F5D202F580529142F1D2038000206B
:1001000070470A20704700BF783200202DE9F04187
:100110000D46904600F5805600F1080402230B803E
:10012000002708E001276388DA1C04EB82042A8890
:10013000134403332B80B44210D22368B3F1FF3F42
:100140000CD02046FFF75DFF0028EBD0A368074ADC
:1001500012689342E7D9054A1360E4E7B8F1000F4B
:1001600001D088F80070BDE8F08100BFFC310020AC
:1001700003890B44033303814389591A03394181AD
:1001800070470000F8B5033085B240F2FD339D4260
:1001900001D90920F8BD0E46002401E00134A4B2C3
:1001A000012C13D823010C4AD35C002BF6D129462D
:1001B0002046FFF781FF03460028EFD03480064A2F
:1001C00002EB04177A8915447D8100E000230BB906
:1001D0000720F8BD0020F8BD78320020034B03EB68
:1001E00001114B89181A0338488170477832002072
:1001F000024B186801301860704700BFFC310020C6
:1002000070B505460E460C68CCB16388033304EB29
:100210008304114B03EB05135B6803F580539C4289
:1002200017D22368B3F1FF3F11D02046FFF7E9FE54
:10023000034650B96388033304EB8304E9E7064BB4
:1002400003EB00135C680834E3E7346002E000234A
:1002500000E00023184670BD7832002070B582B0EF
:1002600005460C464068FFF7D9FE20B12A89174B96
:100270001B899A4218D0002323802388012B23D87E
:100280000023019301A92088FFF7BAFF0646B8B101
:10029000019B99682A689142F4D16B600B4B1B89D2
:1002A0002B81304602B070BD2A6869688B689A421B
:1002B000E1D12046FFF712FFB0FA80F67609F0E7A9
:1002C000238801332380D8E70026EAE7EC310020B9
:1002D000F8B505460E4617461C460220FFF73EFEBF
:1002E00008B90220F8BD002F2DD00CBB0520F8BDA9
:1002F00086B11988328891420CD02146A088FFF738
:100300007FFF80B12368002DF2D099882A8891421E
:10031000F3D1EDE79B683B6023687B600B4B1B8947
:100320003B810020F8BD00232360A3880133A38014
:10033000A388012B05D81B01054AD35C002BF4D1FF
:10034000DBE70A20F8BD0520F8BD00BFEC31002036
:1003500078320020084B5B6C63B1074B1A6C03EBDF
:10036000C20202601A6C013202F007021A645A6C6F
:10037000013A5A64704700BFA03100200378023B65
:10038000DBB2012B00D97047817D044B1A6C0A4403
:100390001A64817D5A6C521A5A64F4E7A031002025
:1003A0002DE9F8430024A046264627461EE0344A9D
:1003B00015600221918080463BE0731C36010321C9
:1003C000304A91559EB20FE02E493301CA180020E1
:1003D000C8545560083319448A1D2846FFF796FE15
:1003E00047F002070136B6B20134A4B2022C43D85A
:1003F000254B1D6805EB04352846FFF735FE01281F
:100400001AD00028E0D00328EED12846FFF744FE9A
:100410000028D2D01A4A1268002AC8D019483101DF
:100420004318022242545D601A81184B5E800136E7
:10043000B6B247F00107D7E7B8F1000F0AD011486C
:1004400031014318022242540D49096859601A814A
:100450000136B6B2DFF82890494641F8045B002225
:100460002846FFF753FEB9F80430022B02D00823C8
:100470001F43B9E70423FBE7F8B2BDE8F88300BFE8
:100480009832002078320020D02F0020EC3100205C
:100490000A4A1389013313810023538013730AE03E
:1004A0001A0107498A5CB2FA82F2520903491944D7
:1004B0008A7201339BB2012BF2D97047EC310020D4
:1004C000783200200023012B2AD81946164A1A44F4
:1004D000927A12B310B409E001339BB2012B17D802
:1004E0001946114A1A44927A002AF5D00E4A1A4443
:1004F000002494720D4A02EB03129289002AEBD178
:100500000A4A02EB01118A7B002AE5D0038000E051
:10051000002210465DF8044B704701339BB2D2E7CE
:1005200000221046704700BFEC31002078320020D6
:10053000044B5B685B880333034A918811FA83F3A9
:1005400093807047EC31002098320020074A1168F0
:10055000074B5888074B03EB00135868106059602D
:100560009188198102239380704700BF9832002040
:10057000EC3100207832002008B5124B1B78072B95
:100580001ED8DFE803F0041D1D0A1016161AFFF727
:100590007FFF01220B4B1A7008BDFFF7C9FF022233
:1005A000084B1A7008BDFFF7D1FF0622054B1A70E1
:1005B00008BD0722034B1A7008BD0122014B1A70B7
:1005C00008BD00BFEC31002008B50522054B1A70AC
:1005D000054902238B80002301220968034800F0AB
:1005E00009FF08BDEC31002098320020D02F0020F8
:1005F00008B50B4B5A880B4B03EB02139B8913B1C5
:10060000FFF7E2FF08BD074901EB0211012249682B
:10061000054800F0EFFE0422014B1A7008BD00BF30
:10062000EC31002078320020D02F002000B583B0BC
:10063000054B1968002300930223044A044800F084
:1006400091FE03B05DF804FB98320020D09C0200BC
:10065000D02F002008B5044B07221A7000225A60E0
:10066000FFF7E4FF08BD00BFEC31002000B583B008
:10067000002300930223044A0146044800F072FE5E
:1006800003B05DF804FB00BFC89C0200D02F00201F
:10069000F8B538B90C460B79032B52D8DFE803F0D4
:1006A0000718303C0120FFF751FC0120F8BDFFF78F
:1006B000BDFF01232371002845D1F8BD0D461C0163
:1006C0000B195868FFF7D2FF00232B5501230CE0CC
:1006D0000023012B07D81A011D498A5C022AEDD09C
:1006E00001339BB2F5E700230F20002BE3D102205A
:1006F000FFF724FC0120FFF729FC41F61D50F8BD4F
:10070000144D002301222968134800F073FE0223D0
:10071000AB8000232371CEE70E4D2868FFF7A6FFBC
:100720000E4B5B882E680A491B01CA1857682F6058
:100730005660AE8816810222AA800022CA54227115
:10074000B9E70F20B7E70120FFF700FC0E20B4E760
:100750007832002098320020D02F0020EC31002089
:1007600008B5054B06221A705A88044B03EB021396
:100770005868FFF77BFF08BDEC310020783200207D
:1007800010B582B00446002300930123021D0448E3
:1007900000F0E8FD0223237400B10E2002B010BD6A
:1007A000D02F002010B582B004460023009301230F
:1007B00000F10C020831064800F0D4FDA37D2BB1F6
:1007C0000323237400B10E2002B010BD0123F8E70B
:1007D000D02F002070B584B004460E46002504A832
:1007E00040F8045DFFF7B6FDA18A039B1A689B8859
:1007F000009506EB8101094800F0B4FD039B9B883E
:10080000A28A1344A382A37D013BDBB2A3750BB97B
:100810000123237400B10E2004B070BDD02F00203E
:1008200010B582B0044600230093012300F10802B2
:100830000431074800F096FD2378032B05D00623EA
:10084000237400B10E2002B010BD0523F8E700BFED
:10085000D02F002010B582B00C4600230093012356
:10086000074A0146074800F07DFD10B10E2002B096
:1008700010BD054B03EB04140123A373F7E700BF7E
:10088000C49C0200D02F00207832002070B50C46A6
:100890004A8A294D05EB021578B9274B03EB021361
:1008A0005A681E8902EB86060B7C062B3DD8DFE8D2
:1008B00003F0182C20260D320A00C9882846FFF7BD
:1008C00057FC012613E041F61D560FE01B4800239C
:1008D00043608B6903601A49FFF7C0FC08B90A2618
:1008E00005E031462046FFF74BFF0646FEB930468D
:1008F00070BD31462046FFF755FF0646F6E7314604
:100900002046FFF767FF0646F0E731462046FFF72F
:1009100087FF0646EAE70A4B1988084B5868FFF735
:1009200099FF064606232374E0E70F26DEE7E188F9
:100930002846FFF71DFCDAE77832002074310020EA
:10094000A232002010B584B0044600230193029324
:10095000C36800930DF10E016846FFF77FFC10B9E4
:100960000A2004B010BD01988388E38003882381A6
:10097000BDF80E10FFF76EFFF3E7000030B583B04F
:1009800009484268094B19689C885388033303253A
:100990000570002000909BB201EB8401044800F038
:1009A000E1FC03B030BD00BFEC31002098320020E4
:1009B000D02F002008B5064B191D5888FFF720FCE2
:1009C00010B9FFF715FE08BDFFF7D8FF08BD00BF3F
:1009D000EC31002008B50748FFF774FD38B9064B25
:1009E00000221A705A805A6041F61D5008BDFFF768
:1009F000E1FF08BDEE310020EC31002030BB08B52E
:100A0000144B1B7B6BB10022124B1A73114B1B78DA
:100A1000013B062B1CD8DFE803F0070A0D101B135F
:100A20001600FFF7A9FDF1E7FFF7D4FF08BDFFF7B8
:100A3000C1FF08BDFFF7A2FF08BDFFF7D9FD08BD44
:100A4000FFF78EFE08BDFFF705FE08BD01207047C9
:100A50000F2008BDEC31002010B584B00B4B01AA6B
:100A600000210630FFF734FC40B104460822002183
:100A70000648FEF76DFC204604B010BD034B998874
:100A80000298FFF7E7FE0446F5E700BFA432002016
:100A9000B0B910B50C460B79012B0BD023B1022B4A
:100AA00010D141F61D5010BD0846FFF74BFF022341
:100AB000237110BD0846FFF7CFFF0A2804D010BDF0
:100AC000012070470F2010BD41F61D50F7E70000D0
:100AD00010B50C4C236FC3EBC30398001C220021FC
:100AE0002044FEF735FC636F33B1226F013202F010
:100AF00003022267013B6367024B586F003018BF47
:100B0000012010BD0032002030B587B01E4A146F9E
:100B1000E3001D1BA9005518535C013B052B2AD887
:100B2000DFE803F0031E1E2222262946FFF7B0FD50
:100B3000A0B141F61D5398421FD002902846FFF7FE
:100B40001DFC01A92846FFF725FA01A8FFF710FAB6
:100B5000FFF7BEFFA0B10020FFF7D6FF07B030BD02
:100B60002946FFF793FEE3E72946FFF791FFDFE70A
:100B7000FFF744FFDCE70F20DAE700230293E0E70A
:100B80000420FFF7E3F9E9E70032002008B5084642
:100B9000FFF7BAFF08BD08B50420FFF7DFF900B181
:100BA00008BD0420FFF7CAF90020FFF7ADFFF7E703
:100BB0000368044A934202D0083303607047024B33
:100BC00003607047D8310020A03100202DE9F041AA
:100BD00082B0254B5F6F032F3ED80C469646234BC1
:100BE000D3F844C0C1F108039C4539D8DFF87880B8
:100BF000D8F870303B4403F00303C3EBC3039E00FB
:100C0000464405460FCD0FC695E8070086E8070065
:100C10007B1CC8F874302CB377462646134B1A6CED
:100C200094440CF0070C03EBCC03019300240BE07D
:100C300002AB53F8045D07EBC40003C885E803006A
:100C40001846FFF7B5FF0134B442F1D3074B5C6C93
:100C500034445C64012000E0002002B0BDE8F08173
:100C60000020FAE70120F8E700320020A031002040
:100C70002DE9F04389B006460C4615461F46022072
:100C8000FFF76CF920B90223184609B0BDE8F083DC
:100C9000002C6CD022884FF6FF739A4269D063888B
:100CA0000BB90423F0E7D4F80490B4F80880414667
:100CB0004846FFF7CBF908B90323E5E7002D46D0F6
:100CC0002B88ADF802306D888DF8047000238DF804
:100CD0001430BDF80230ADF8163023898DF81A3083
:100CE0000323ADF81830FFF783FA04902388ADF89A
:100CF0000C306388ADF80830ADF80A50032F29D0C6
:100D00000023ADF80E306268218901A8FFF75EFF6D
:100D100030B33EB100237360049A3260B372164B55
:100D20001B893381FFF737FF0023ADE709EBC302CF
:100D300092882A4495B201334345F7D30DF102015D
:100D40002846FFF71FFA03460028BDD09CE7002382
:100D50001D46F1E704238DF8143033680793CFE77D
:100D6000BDF802102846FFF739FA08238CE705235F
:100D70008AE7042388E700BFEC310020064B1B788C
:100D8000082B07D0054A42F823000133024A1370AA
:100D9000002070470C207047A032002080310020D6
:100DA00000B58DB000230793089309930A930B9322
:100DB0000220FFF7D3F838B90120FFF7CFF840B190
:100DC00000200DB05DF804FB07A8FFF7D1F8002064
:100DD000F7E70120FFF7B2F800F072FA01238DF86F
:100DE0000030FFF7DDFA0B2815D8DFE800F02911F5
:100DF000291114250625141D211D0220FFF79EF838
:100E00000120FFF7A3F807A8FFF7B2F80020D8E702
:100E100000238DF80430002211466846FFF7D6FE05
:100E2000FFF7B9FE0020CCE703238DF80430F2E78A
:100E300002238DF80430EEE701238DF80430EAE751
:100E40000B20BEE7E0B130B583B00546D1B10C460A
:100E50000DF10601FFF702FA08B90A2013E06968EC
:100E6000BDF80620094B03EB02139A8901329A81DF
:100E700021606B680C3363600123AB72002002E0D9
:100E800005207047052003B030BD00BF7832002038
:100E900000B310B582B004460DF10601FFF7DEF98C
:100EA00010B90A2002B010BDBDF806200A4B03EBB2
:100EB00002139B890BB90620F4E7A17A09B9062031
:100EC000F0E7054901EB0212013B93810023A37275
:100ED0001846E7E7052070477832002030B583B028
:100EE00004460D460220FFF739F818B902231846C8
:100EF00003B030BD64B10DF106012846FFF742F999
:100F000003460028F3D1BDF8062022806580EEE775
:100F10000523ECE710B504460220FFF71FF808B9D7
:100F2000022010BDACB12188022901D9042010BDD6
:100F3000094B03EB01135B896088C21C9B1A002BD1
:100F400001DA042010BDFFF749F9002020806080FD
:100F500010BD052010BD00BF7832002008B5022367
:100F60000022FFF785FE08BD22B108B50223FFF776
:100F70007FFE08BD0520704728B108B50323002275
:100F8000FFF776FE08BD0520704710B588B004460F
:100F90000220FEF7E3FF10B9022008B010BD4FF6A3
:100FA000FF739C4201D10420F7E705238DF804303C
:100FB00001238DF80830ADF80A400022114601A83F
:100FC000FFF704FE08B90820E7E7FFF7E4FD00207B
:100FD000E3E7000000B589B00220FEF7BFFF18B9B3
:100FE000022009B05DF804FB08A8062300F81C3DA8
:100FF00000221146FFF7EAFD08B90820F1E7054B8A
:101000001B7813B10122034B1A73FFF7C4FD0020B4
:10101000E7E700BFEC31002000B583B0ADF8060073
:1010200002A820F8041D01460DF10600FFF750F953
:1010300003B05DF804FB10B582B002AC24F8020DD9
:1010400013460A4621460020FFF742F902B010BDC0
:1010500010B582B002AC24F8020D13460A460021F6
:101060002046FFF735F902B010BD20B129B1036861
:101070000B600020704705207047052070474FF037
:1010800010235869B0F1FF3F00D070474FF08053F4
:1010900058690003F9E729DF704728DF704700002F
:1010A00038B1074A904206D3064A904205D3002041
:1010B000704700207047002070470120704700BF34
:1010C000D02F0020E02F002010B5828AC38AD11AC9
:1010D000B1F5806F08DA8AB204699B00C1681944CF
:1010E000E018FFF7D8FF10BD4FF48062F4E708B5B1
:1010F0008089FFF7D2FF08BD0A4A536E013B536651
:1011000023B9094A137823F002031370054A136EBA
:1011100001331366042B00D070470022014B1A667E
:10112000FAE700BFB0320020AC32002038B50C4BDB
:101130005A6E042A12D01B6E1344032B00D9043BB1
:101140000546074C01326266182202FB0344002167
:101150002046FEF7FDF82C60012038BD002038BD88
:10116000B032002030B585B004460D461022002173
:101170006846FEF7EDF8237A012B0AD0022B11D036
:101180006368019323689B6829466846984705B0C1
:1011900030BD00238DF8003023690293A38AADF897
:1011A0000C30EDE701238DF80030A289E389D31AD2
:1011B000ADF80830ADF80A20E2E7000010B5134A98
:1011C000136E03EB4301C8001418526E62B1237A08
:1011D000012B03D0022B08D0092002E02046FFF7A4
:1011E00073FF112805D060B910BD2046FFF77FFFBF
:1011F000F7E7074A137803F0FD0343F00403137085
:1012000010BD09212046FFF7ADFFEDE7B032002009
:10121000AC32002008B5064B1B7813F0060F05D141
:1012200043F00203024A1370FFF7C8FF08BD00BF76
:10123000AC32002008B50022164B1A70037A012B3D
:1012400002D0022B16D008BD828AC18A531AB3F588
:10125000806F06DA9BB20B449BB2C3829A4203D0E2
:1012600008BD4FF48063F6E70021FFF77BFFFFF72F
:1012700043FF08BD838901338381C38901339BB256
:10128000C381028A9342EBD10021FFF76BFFFFF786
:1012900033FFE5E71833002008B5084A1378013317
:1012A000DBB21370032B00D808BD0022034B1A7069
:1012B0000821FFF757FFFFF71FFFF5E7183300205E
:1012C0002DE9F041244B254DED1AFFF7D8FE244BB4
:1012D00093F800C01CF0010F3AD12D09AE4600234F
:1012E00000E00133AB420BD219011B4A8C188A581B
:1012F000002AF6D06268002AF3D00EF1FF3EF0E734
:1013000000271AE0627B904501D2DEB2904601339D
:10131000AB4209D21901104A8C188A58002AF1D020
:101320006268002AF3D1EDE736010B4BF2185060EA
:10133000127BA0EB0230F0500137BE4503D9FEB25C
:1013400000239846E4E74CF0010C054B83F800C0FD
:101350000020BDE8F08100BFD02F0020E02F00204A
:10136000AC320020F0B583B0214C247814F0010F8A
:1013700038D01F4616460D460446FFF791FE10B9B9
:10138000022003B0F0BD7EB385B316F0030F01D089
:101390000620F6E715F0030F01D00620F1E72368D9
:1013A0009D4201D20520ECE7626805EB87039A4273
:1013B00001D20520E5E70FB90420E2E701A8FFF715
:1013C000B5FE08B90720DCE7019B089A5A601C604B
:1013D000019B01221A72DE601D619F82FFF71AFFD6
:1013E0000020CEE70120CCE70320CAE70320C8E7AE
:1013F000AC320020F0B583B01D4C247814F0010FFE
:1014000031D01F4616460D460446FFF749FE10B977
:10141000022003B0F0BD45B3C5F30B030BB10620AA
:10142000F7E723689D4201D20520F2E705EB06337A
:101430006268934201D90520EBE70EB90420E8E782
:1014400001A8FFF773FE08B90720E2E7019B5F6080
:101450001C60019B02221A72290B99811E82FFF7E0
:10146000D9FE0020D5E70120D3E70320D1E700BF54
:10147000AC32002020B1034A526E02600020704757
:1014800003207047B032002008B5144A136E03EBF6
:101490004303D9000A44124B1B7813F0020F0BD000
:1014A000022805D0032815D11046FFF7F5FE11E0FC
:1014B0001046FFF7BFFE0DE013F0040F0AD003F053
:1014C000FB03074A1370054A526E1AB143F0020338
:1014D000034A1370FFF772FE08BD00BFB032002050
:1014E000AC32002000231F2B06D801229A40104264
:1014F00004D101339BB2F6E74FF6FF7318467047ED
:1015000070B49DF80C6030B3054621B31AB30020C7
:101510001F2820D835F810409C421AD00130F7E738
:1015200085B2012404FA05F551F8234024EA0504A4
:1015300041F82340013393420DD2002EF0D085B202
:10154000012404FA05F551F823402C4341F82340C7
:10155000F0E70023EFE770BC704700B583B000935D
:1015600013460122FFF7CCFF03B05DF804FB50B136
:1015700010B4044600231F2B11D834F813009042F6
:1015800002D00133F7E770479BB2012202FA03F35E
:10159000194214BF104600205DF8044B704700202C
:1015A000FAE70023036019B130B40D46002301E0CF
:1015B000704701331F2B0DD89CB20121A1400A4274
:1015C000F7D001684C1C046035F8134000EB410172
:1015D0008C80EEE730BC70474FF0A043D3F8040591
:1015E000C0F3C010704780224FF0A043C3F8082515
:1015F000704780224FF0A043C3F80C25704710B508
:10160000002404B110BD2046FFF7F3FF0134F8E7D2
:1016100010B5002404B110BD2046FFF7E4FF0134EB
:10162000F8E74FF0A042D2F80435D94301F0800129
:10163000C2F8081503F08003C2F80C35704708B5EE
:10164000002313B1FFF7DBFF08BD03214FF0A042D9
:10165000C2F81C170133F4E74FF0A043D3F810355C
:1016600013F0400F0CBF01200020704700231BB176
:101670004FF0FF33184670470628FBD00133F6E7DA
:101680000620704703680BB11A680260184670475D
:1016900008B5114B1B780BB1852008BD0E4B0022FD
:1016A0009A605A601A61DA600C4B1B6813F0010FE4
:1016B0000CD007F033F920B901224FF08043C3F872
:1016C00018250122044B1A70002008BD072110467E
:1016D00000F076F8EDE700BF1C33002000E100E0E9
:1016E00000B583B01A4B1B682BB91A4B1B68C3B9E2
:1016F00003B05DF804FB164B00221A601B680093D0
:10170000009B01234FF08042C2F80833124A537005
:101710001248FFF7B7FF0028E7D04368002098473A
:10172000F6E70C4B00221A601B680193019B022212
:101730004FF08043C3F808230122074B9A700848F2
:10174000FFF7A0FF0028D3D0436801209847F6E7B1
:1017500000010040040100401C330020243300201D
:101760002C33002008B1704708BD08B50448FFF7C6
:1017700089FF0028F8D0436800209847F6E700BFAB
:101780002433002000B583B002A8002300F8013DF7
:10179000FEF792FB094B1B7863B1084BDA68013204
:1017A000DA6001229A709DF80700FEF7B1FB03B0E2
:1017B0005DF804FBFFF76CFFEFE700BF1C33002070
:1017C000002815DB4901C9B200F1604303F561430C
:1017D00083F80013420900F01F00012303FA00F010
:1017E000074B02F1600143F8210043F822007047E3
:1017F00000F00F024901C9B2024B9954EAE700BF59
:1018000000E100E014ED00E070B4154662B1002381
:1018100065B10824A34218D20E4A52F82320B2F12F
:10182000FF3F05D00133F5E70823F1E70C24F1E78A
:101830005AB2084C261886F8302044F8231035B9DF
:10184000083B234483F8500001E04FF0FF3210467C
:1018500070BC7047303300204FF0FF32054B43F827
:101860002020072804D908381844FF2380F8503076
:10187000704700BF30330020174B93F854300BB142
:101880000820704710B582B006E0134A1A44FF21C1
:1018900082F830100133DBB21F2BF6D9002404E0AC
:1018A0002046FFF7D9FF0134E4B20B2CF8D9072109
:1018B0000620FFF785FF094B002018601B68019385
:1018C000019B4FF00042064BC3F804230122024B58
:1018D00083F8542002B010BD303300207C610040FA
:1018E00000600040034B93F85400003018BF012003
:1018F000704700BF3033002038B5284B034493F9BC
:101900003030002B01DB082038BD13460D4604465D
:10191000CA781946FFF778FFB0F1FF3F3CD0AB78AB
:10192000BBB14FF0A04204F5E07152F8213023F032
:10193000020342F82130EB78A3B908382A78174B14
:10194000184490F8503043EA821380F85030002059
:1019500038BD6A78920004F5E0734FF0A04141F879
:101960002320E8E72A780E4900F5A27051F82030CC
:1019700023F4473323F4407341F8203051F82050CA
:10198000230203F4F853120402F4403213432B43AE
:1019900041F82030002038BD042038BD303300200D
:1019A0000060004070B483B02E4B034493F9303094
:1019B000072B2CDDA3F108022A4B134493F8503077
:1019C0009B09032B15D0012B1FD003244FF0A043FC
:1019D00000F5E07053F8201021F4403143F8201056
:1019E00053F8202042EA044243F8202003B070BCA0
:1019F00070474FF0A043D3F81035C34013F0010FE8
:101A000001D10224E2E70324E0E70224DEE7DAB2B0
:101A1000072AEBD803F1400292B2920092B2124D23
:101A200003F5A27655F8264044F0010445F8264017
:101A300002F1804202F5C042002414601268019253
:101A4000019A0029D2D0074A104490F9301052F878
:101A50002120002ACAD0012202FA03F3C5F8043378
:101A6000C4E700BF30330020006000404FF0A043C7
:101A7000D3F8103523FA00F000F0010070470000A1
:101A8000F0B587B00025059501204FF480732946F5
:101A900003E0400004339BB20131072912D803F15F
:101AA000804202F5C0421468012CF2D1734CD4F884
:101AB00004432042EDD00024146012680392039A7C
:101AC0000543E6E76E4B1B68012B06D015F0FF0FB0
:101AD0002ED1002D2FDB07B0F0BD694A0023136023
:101AE00012680492049A45F0004505AA002BEDD136
:101AF0004FF0A041D1F8101542F8041B0133F5E76F
:101B0000984776000134072CE3D83542F9D05B4B77
:101B100004F5A27253F82200C0F3042053F82210F7
:101B2000C1F30141574B53F82430002BE8D1E8E7CB
:101B300001260024E7E700230093002B6DD106AABD
:101B400002EB83024FF0FF3142F8141C0133F4E73B
:101B500003290AD12BE01DF802601E430DF8026034
:101B600027E003293BD007B1B8470134032C50D8F4
:101B7000444B234493F95030D9B221F0C000B3F163
:101B8000FF3FF2D0C20801F00703012606FA03F373
:101B900006AE164416F8146C3342E6D08909394E65
:101BA000371897F9307056F82770002FD0D00329D6
:101BB000D1D000F5E0764FF0A04E5EF82660C6F377
:101BC00001460DF1180E724412F8042C134001D096
:101BD000022EC6D0002BC8D1032EC6D1C1E7022EDB
:101BE00014D04FF0020E4FF0A04300F5E07253F80E
:101BF000226026F4403643F8226053F8226046EA19
:101C00000E4643F822600135EDB2ACE74FF0030E0B
:101C1000E9E7DDB9002D3FF45EAF00252C46A5E7CE
:101C20004FF0A041D1F8101542F8041B0133002BEE
:101C3000F6D000236BB906AA02EB830252F8101CFF
:101C400052F8042C914215D10133F3E7002302AA84
:101C5000EDE7012383B9002BDCD106AA02EB830256
:101C600052F8101C42F8041C52F8181C42F8141CBC
:101C70000133F0E70023EDE70025CBE700600040EB
:101C80007C6100403033002008B50346817FFF2986
:101C900005D001228A404FF0A041C1F8082500225A
:101CA0005A771A72184650F8082B5968904708BDA1
:101CB00030B482B0146854B104F06045B5F1005FEF
:101CC00005D000234B77102002B030BC70479568D8
:101CD00025B105F06045B5F1005FF2D11579C0F886
:101CE0004445C0F848559468127BC0F83445C0F8A4
:101CF00038250022C0F81821D0F818210192019A45
:101D000013F0010F17D00122C0F8502513F0020F75
:101D100015D00122C0F8402513F0080F01D101228F
:101D200002610A687AB113F0040F1BD14023C0F896
:101D300004330020C8E70022C0F85025E6E700225F
:101D4000C0F84025E8E7D0F81831002BFBD08A7F97
:101D5000FF2A0CD0012393404FF0A042C2F808356F
:101D60000020B1E74023C0F808330020ACE7002092
:101D7000AAE7D0F8183103B9704700B583B0002244
:101D8000C0F81821D0F818310193019B0846FFF7DD
:101D90007BFF03B05DF804FBF8B5447904EBC405A0
:101DA000AE004C4D35442D7F0DB10820F8BD494F94
:101DB000BD19BA516B600B7B012B74D90D780123CF
:101DC000AB404FF0A045C5F808350B7803F5E0733C
:101DD00001264FF0A04545F823604B78FF2B6AD0D1
:101DE0001D469E404FF0A047C7F80C6503F5E07311
:101DF000032647F823608B78FF2B5FD01F4603F53F
:101E0000E0734FF0000E4FF0A04646F823E0CE7886
:101E1000FF2E0CD00123B3404FF0A046C6F8083582
:101E2000CB7803F5E0734FF0030E46F823E04379D7
:101E300091F803E003EBC3039E00264B334483F881
:101E40001EE003680E78C3F80865C3F80C55C3F8A4
:101E500010758D68C3F824550E7B4D7B003518BF77
:101E60000125022E30D0032E31D0012E29D0C3F807
:101E700054554D79C3F8C05512B14025C3F80453E9
:101E80000725C3F8005522B1097990F90400FFF73E
:101E900097FC104AE300181981001144002048778C
:101EA00001230B77F8BD0D780123AB404FF0A0451F
:101EB000C5F80C3589E74FF0FF359CE74FF0FF3749
:101EC000A5E745F00205D2E745F00405CFE745F068
:101ED0000605CCE7883300202DE9F04707469446F5
:101EE0004479E000204482001E4D15446B7F13B1FD
:101EF0001120BDE8F0870E4610461A4A135823B148
:101F00001CF0140F01D101226A77DFF858904FEAD4
:101F1000C40808EB04034FEA830ECE440EF10C0A0A
:101F200096E80F008AE80F009EF8213003F0FC03CA
:101F30006FF382038EF821304444A300994499F84A
:101F40001E20FF2A05D0012393404FF0A042C2F883
:101F50000C356346324629463868FFF7A9FEBDE8CE
:101F6000F08700BF8833002000B585B00091029350
:101F70008DF804209DF818308DF80C300022694649
:101F8000FFF7AAFF05B05DF804FB000008B50249A1
:101F90000248FFF7EEFE08BD883300200030004005
:101FA00008B503494FF04020FFF7E3FE08BD00BF2E
:101FB000AC3300200279044B03EB4213987D0030D0
:101FC00018BF0120704700BFD0330020F0B587B0A4
:101FD0000579624B03EB45131B7F3BB101F0604376
:101FE000B3F1005F02D0102007B0F0BD17460E46D7
:101FF0000446FFF7DFFF08B11120F5E7574B03EB6D
:102000004515AF75AE600022AA82227903EB421318
:102010001B7F2BBB217922680023C2F81C31D2F828
:102020001C210492049A2268012090602568C5F85A
:102030001C31D5F81C310593059B484B03EB41132C
:1020400098689A8A92B2865C9A8A92B2013292B267
:102050009A82C5F81C655B68002B3CD00020C3E762
:10206000114623680022C3F82021D3F820310193C0
:10207000019B2368C3F85821D3F858310293029B7F
:102080002268364B03EB41139D68987DC2F8445596
:10209000C2F848052268012090605B680BB10020FF
:1020A000A2E72368D3F82021D3F858310AB9002BCE
:1020B000F7D033B90020294B03EB411100238B7576
:1020C00092E70F20F7E7254B03EB41139B8A9BB266
:1020D000B3F5807F15D1214B03EB41139A8A92B25D
:1020E0009B7D9A4222D22268D2F81C31002BEAD181
:1020F0001A4B03EB41139B8A9BB2B3F5807FF2D15D
:10210000E1E70023C2F81C31D2F81C310393039B92
:10211000124D05EB4115AB8A9BB2C65CAB8A9BB2F4
:1021200001339BB2AB82C2F81C65D4E70B4B03EBC7
:1021300041139B8A9BB2B3F5807F0DD02368D3F8FF
:102140001C21002AFAD00122DA600020034B03EBA5
:10215000411100238B7547E70F20F7E7D0330020AC
:1021600010B58EB08A4B1B7F002B6CD1894BD3F8F6
:10217000043313F4007F00F00F81864BD3F8243131
:10218000002B00F00981834B0022C3F82421D3F8EF
:1021900024210992099A4FF40172C3F808237C4B59
:1021A0009B7E13B901227B4B5A6002238DF82830A5
:1021B000784AD2F88034C2F880340D93744BDA7DBB
:1021C0008DF83020DA680B920022DA751A765A6898
:1021D00019680AA890476F4BD3F81C31D3B16C4AE9
:1021E000938A9BB2927D934280F03E81694900239D
:1021F000C1F81C31D1F81C310693069B644A9068E3
:10220000938A9BB2C05C938A9BB201339BB2938248
:10221000C1F81C055F4BD3F8443193B15D4B0022EC
:10222000C3F84421D3F844310493049B584B9B7E5C
:1022300013B10122574B1A60554BDB7D002B40F048
:102240002D810EB010BD534BD3F82431002B31D16A
:10225000504BD3F81031002B49D04E4B0022C3F81D
:102260001021D3F810210392039AD3F83C35DBB246
:10227000474AD27D93423AD1454A127E002A67D01E
:10228000434AD4684348D0F8001221F02001C0F836
:102290000012117ED1751169D160002111760121E2
:1022A0008DF828108DF830300B94536811680AA807
:1022B00098471CE0374B0022C3F82421D3F824119F
:1022C0000291029902218DF82810D3F88014C3F8E6
:1022D00080140D91D3F83C358DF830302C4BD968F3
:1022E0000B91DA751A765A6819680AA89047294B33
:1022F000D3F844315BB1274B0022C3F84421D3F813
:1023000044310193019B224BDB7D002B2FD1214BCC
:10231000D3F82031002B94D01E4B0022C3F820218B
:10232000D3F820310093009B194B9B7D002B88D064
:10233000184BD3F84C358DF828208DF83030144BDD
:1023400099680B919A755A6819680AA8904778E7B6
:102350000F4A0021D175D16801208DF828008DF831
:1023600030300B91536811680AA89847BFE7084BB3
:10237000DA75084AD2F83C15DA6801208DF8280091
:102380008DF830100B925A6819680AA89047BEE77A
:10239000D033002000200040484BD3F8043313F022
:1023A000040F3FF418AF454BD3F80831002B3FF42E
:1023B00012AF434BDB7D002B2FD1404B0022C3F8E3
:1023C0000821D3F808210892089AD3F818353C4B15
:1023D000DA7D5B7EDBB29A427FF4FDAE384B1A7E2B
:1023E000002A2ED1364B9B7E13B90122334B5A6003
:1023F0004FF40172314BC3F80823314B0022DA75D8
:10240000597EDA6801208DF828008DF830100B9283
:102410005A6819680AA89047DDE628490023C1F8E0
:102420000831D1F808310793079B254AD068537EBD
:10243000DBB2D1F81815C154537E0133DBB25376A9
:10244000C5E7D968587EDA751A69DA6000221A760B
:102450005A7601228DF828208DF830000B915A68A9
:1024600019680AA89047B6E6144B0022C3F81C214D
:10247000D3F81C310593059B114B9B7D002B3FF43A
:10248000C9AE8DF828208DF830300D4B99680B912E
:102490009A755A6819680AA89047BBE6084B00224B
:1024A000DA75597EDA6801208DF828008DF8301031
:1024B0000B925A6819680AA89047C2E600200040AB
:1024C000D033002008B50220FFF7ABF808BD0000AC
:1024D00010B5084B1B7853B1002400E001342CB92F
:1024E000022CFBD02046FFF784F8F7E710BDFFF77A
:1024F00086F810BDF133002038B50546C04B1B7877
:10250000E3B9172D00F28C81DFE815F01E002500DD
:10251000250052007F00A300CF00DC00E300F000A4
:10252000FD000A0117011D011D011D011D011D01F5
:1025300056015C0165016E01840184010022B04BEB
:102540001A70FFF7C5FFDCE7FFF7C2FFAD4B1D7048
:102550000024204638BD0020FFF73EF8F0B10020EF
:10256000FFF747F8022D16D04FF47A63A54A15708D
:102570000024590CD8034FF47A72002310F5FA7036
:1025800041F1000106F06AFA224601469E48FDF735
:102590005FFC0446DDE74FF4E163E7E70020FFF767
:1025A00022F8022D02D04FF4C873DFE7C823DDE71D
:1025B0000020FFF711F8F0B10020FFF71AF8032D03
:1025C00016D04FF47A638F4A15700024590CD80343
:1025D0004FF47A72002310F5FA7041F1000106F011
:1025E0003DFA224601468848FDF732FC0446B0E732
:1025F0004FF44873E7E70020FEF7F5FF032D02D004
:102600004FF4C873DFE7C823DDE70020FEF7E4FFDF
:10261000C8B10020FEF7EDFF4FF47A63794A1570D8
:102620000024590CD8034FF47A72002310F5FA7085
:1026300041F1000106F012FA224601467248FDF708
:1026400007FC044685E70020FEF7CDFF4FF4C87372
:10265000E4E70020FEF7C0FFE8B10020FEF7C9FF65
:10266000052D16D04FF47A63664A15700024590C74
:10267000D8034FF47A72002310F5FA7041F100018B
:1026800006F0ECF9224601465F48FDF7E1FB0446FF
:102690005FE7C823E8E70020FEF7A5FF052D02D07D
:1026A0004FF4C873E0E7C823DEE70020FEF7B9FF68
:1026B000544B1D70002240F6CD415348FDF7C8FB36
:1026C000044646E70020FEF78EFF4E4B1D700024A7
:1026D0003FE701204A4B1870FEF7A3FF002240F6A7
:1026E000CD414948FDF7B4FB044632E70120444B95
:1026F0001870FEF796FF00224FF480414248FDF724
:10270000A7FB044625E701203D4B1870FEF789FF23
:10271000002240F6CD413C48FDF79AFB044618E7FD
:102720000120374B1870FEF77CFF00224FF48041E8
:102730003548FDF78DFB04460BE7FEF769FF314B8B
:102740001D70002405E73148FDF7A0FB0446D5F1D4
:1027500011052AD048BB012D20D9AAB20023901818
:1027600043EB030180185941CC00C500A81844EB85
:1027700003018B0443EA90338204104619464FF458
:102780007A72002310F5FA7041F1000106F066F943
:10279000002201461D48FDF75BFB04460220FEF7C0
:1027A00022FF01221A4B1A70D3E60220FEF721FF06
:1027B0000022174B1A70CCE6FFF78AFE114B1D70F2
:1027C0000024C6E6FFF784FE0020FEF70CFF0D4B49
:1027D0001D700024BDE6FFF77BFE0120FEF703FF1E
:1027E000084B1D700024B4E6FFF772FE0020FEF7D0
:1027F000FAFE0120FEF7F7FE024B1D700024A8E64A
:102800003C3400206434002040340020F4330020A5
:10281000F1330020FEF7FCFE024B1D70002498E609
:10282000002496E66434002008B5054B1B6813F0BD
:10283000010F00D108BD034B1878FFF75DFEF9E7E3
:10284000383400206434002070B506460D46FEF78B
:102850000DFF002835D10446012D04D0EDB1022D25
:1028600029D000252EE01B4A00EB4003D118D55C8F
:102870004B783BB904EB4402164B13449A78164B41
:102880001A551FE0154A4FF400411548FDF7E0FACC
:102890000028EFD1114B1E70ECE71148FDF7F6FA56
:1028A0000D4B1A5D04EB44040A4B1C44A578AA4264
:1028B00008D0002506E000EB4004064B1C44657878
:1028C00000E0002525B1074B1B680BB1284698474F
:1028D00070BD00BF3434002068340020F033002085
:1028E000143400206034002008B502210078FFF77E
:1028F000ABFF08BD08B5FEF7AFFE08BD08B5054B38
:102900001B6813F0010F01D1002008BDFFF7F4FD93
:1029100008BD00BF38340020034608B107207047C7
:10292000012A06D001290CD0C1B102290FD00720FD
:102930007047012901D00022F4E700F10E02D2B263
:10294000F0E703EB4301094842541846704703EB94
:102950004300064901444A701846704703EB4300A0
:10296000024901448A701846704700BF3434002081
:1029700070B50646214B1860214B196010F0020F0C
:102980001CD1002516F0010F27D14DB37DB3284689
:1029900070BD012211462046FFF7BEFF05460134F7
:1029A0000CB9002DF5D065B19DB1002DEAD1154AC5
:1029B00000211548FDF736FA0546E3E700242546D1
:1029C000EEE740F2666201211048FCF73BFD054648
:1029D000EAE7FCF789FD0546E7E7FEF730FED4E7B6
:1029E0000B4A00210B48FDF71DFA0546CEE70A4ABF
:1029F00001210A48FDF716FA0546C8E738340020D9
:102A000060340020E9280200E49C0200D89C020007
:102A100029280200E89C0200C5240200E09C020074
:102A200008B5FEF72DFE4FF0A04300F5E07053F817
:102A3000202022F4403243F8202053F8202042F492
:102A4000403243F82020002008BD08B501220021B3
:102A50000846FFF761FF20B10346072801D018465A
:102A600008BD072202210120FFF756FF034608B1E7
:102A70000728F4D1042202210020FFF74DFF03466E
:102A800018B10728EBD10023E9E70023E7E708B5F1
:102A9000012202210020FFF73FFF20B10346072853
:102AA00001D0184608BD072202210120FFF734FF9C
:102AB000034608B10728F4D10A2200210846FFF78F
:102AC0002BFF034618B10728EBD10023E9E70023C9
:102AD000E7E710B504460120FFF70CFF10B1022311
:102AE000237010BD0020FFF705FF10B900232370ED
:102AF00010BD0B23237010BD08B50020FFF790FF19
:102B000020B10346062801D0184608BD0120FFF772
:102B100087FF034618B10628F6D10023F4E7002307
:102B2000F2E7000008B50388102B02D0112B12D059
:102B300008BD114B1B6823B10F4A136801331360A2
:102B400008BDFFF782FF0028F6D00C4B1B68002B56
:102B5000F2D09847F0E7084A1368013B136003B1CD
:102B600008BDFFF794FF0028FAD0044B1B68002B28
:102B7000F6D09847F4E700BF703400206C34002092
:102B800008B5074B186011B10846FFF7A2FF054BC7
:102B90001B680BB1002008BDFFF779FF08BD00BF1F
:102BA0006C34002070340020054B1B780BB90520D5
:102BB0007047044B1B7803700020014B187070475E
:102BC000753400207434002008B5074908700122CC
:102BD0000648FFF7FBF9112802D018B1032008BD01
:102BE000042008BD002008BD78340020A42F002058
:102BF00070B51646002405E04D1C0878FFF7E4FF89
:102C000001342946B442F7DB304670BD10B50C469E
:102C10002046FFF7C9FF0528FAD0012010BD76DF56
:102C2000704778DF70477ADF70477CDF7047A8DF36
:102C3000704769DF704766DF704732DF70473EDFFD
:102C40007047000008B5037803B108BD3B21054B70
:102C50001888FFF7E4FF0028F7D0034AEF21FCF7BC
:102C600059FCF2E7B42F0020FC9C020008B5024A90
:102C7000FA21FCF74FFC08BDFC9C020010B504468D
:102C8000FEF702FC204601F049FF10BD08B5FDF734
:102C900099F800B908BD024A9221FCF73BFCF9E71C
:102CA000FC9C020030B585B09DF80430012262F32F
:102CB000030362F3071304AC04F80C3D1A4D2846D5
:102CC00006F086F882B229462046FFF7AEFFE0B94B
:102CD0004FF45070FFF7A5FFE0B9082200210DEB7B
:102CE0000200FCF735FB0623ADF808304FF4C8733B
:102CF000ADF80A300022ADF80C20ADF80E3002A875
:102D0000FFF791FF58B905B030BD084AB021FCF774
:102D100001FCDDE7054AB321FCF7FCFBDDE7034AD4
:102D2000BD21FCF7F7FBEEE7F09C0200FC9C0200E3
:102D300008B50021044803F02CF900B908BD034A86
:102D4000C621FCF7E7FBF9E7AC350020FC9C02004C
:102D500000B585B00C22002101A8FCF7F9FA002289
:102D600001929DF80830012161F3030361F3071319
:102D70008DF808309DF8093003F0F00362F3071373
:102D80008DF809309DF80A3003F0F00362F3071361
:102D90008DF80A3001A9064800F0B4FB10B905B05F
:102DA0005DF804FB034ADA21FCF7B4FBF7E700BF48
:102DB000AC3F0020FC9C020000B589B01C22002121
:102DC00001A8FCF7C5FA002301934FF420320292C8
:102DD0004FF47022039203228DF81020ADF81230C8
:102DE0008DF81430084B0693084B079301A801F0A7
:102DF000D7FF10B909B05DF804FB054A40F2111184
:102E0000FCF788FBF6E700BF452C02006D2C0200A2
:102E1000FC9C02007047000008B50020FFF76EFD23
:102E200030B9FFF769FE48B9FFF707FF60B908BD81
:102E3000084A4FF49571FCF76DFBF2E7054A4FF431
:102E40009771FCF767FBEFE7024A4FF49971FCF7C3
:102E500061FBECE7FC9C020008B558B103280BD1DC
:102E60000220FFF74BFD38B1044A40F24511FCF750
:102E700051FB08BDFFF7D0FF08BD00BFFC9C02005E
:102E800008B5072816D00A2802D0042803D008BDA8
:102E9000FFF7C2FF08BD13210F4B1888FFF7BFFED5
:102EA0000828F4D00028F2D00C4A4FF41771FCF730
:102EB00031FB08BD084B1A884FF6FF739A42E6D1E2
:102EC00001F04AFE0828E2D00028E0D0034A40F290
:102ED0006621FCF71FFBDAE7B42F0020FC9C020000
:102EE00030B589B0044603883B2B5CD010D8102B3A
:102EF00049D0112B39D0012B3DD100218088FFF71B
:102F00009AFEC0B3374A40F27D11FCF703FB32E072
:102F1000562B54D0572B61D0512B2CD16D460346E4
:102F200053F8060F59689A68DB680FC59DF80030A2
:102F30000BB39DF80820042A03D0062A01D0052AE5
:102F400019D1022B47D001238DF810304FF4C173F3
:102F5000ADF8143004A9A088FFF769FE58B1214AE2
:102F60004FF4CC71FCF7D6FA05E00020FFF7C6FC61
:102F700018B900F02CFC09B030BD1A4A40F25F11BC
:102F8000FCF7C8FAF5E70720FFF7B8FC28B9A288D4
:102F9000154B1A8000F014FCEDE7124A4FF4B371A0
:102FA000FCF7B8FAF3E713218088FFF738FE002812
:102FB000E1D00C4A4FF4B871FCF7ACFADBE713210F
:102FC0008088FFF72CFE0028D5D0064A4FF4BC714C
:102FD000FCF7A0FACFE78DF81030B7E70122034BDA
:102FE0001A70C8E7FC9C0200B42F0020AC2F002010
:102FF00010B5044601F0A2FF204604F007F9204670
:1030000001F00AFF2046FFF78DFD2046FFF768FF1D
:10301000204601F071FD2146034802F0D1FF214610
:10302000024800F010FB10BDAC350020AC3F002082
:1030300000B587B05F4B1B6806A840F8043D00232D
:103040004FF498725C4905F06FFC002875D106A812
:10305000002340F8083D05F0EBFC002873D10C225A
:10306000002101A8FCF774F900238DF80430049ABC
:1030700001A90120FFF7DDFD00286AD10C22002103
:1030800001A8FCF765F901238DF8043000238DF8C1
:1030900005308DF80630049A01A94020FFF7C9FDDC
:1030A00000285CD10C22002101A8FCF751F9012372
:1030B0008DF8043007238DF80630049A01A92220E8
:1030C000FFF7B7FD002850D10C22002101A8FCF722
:1030D0003FF901238DF80430F723ADF80630049A48
:1030E00001A92320FFF7A5FD002844D10C220021CF
:1030F00001A8FCF72DF901238DF804304FF4A072DC
:10310000ADF808208DF80630049A01A92020FFF7B9
:1031100090FD002835D104A805F094FC002836D194
:10312000264805F05DFC002837D1254805F062FCF3
:10313000002838D107B05DF804FB224A4FF4EF7144
:10314000FCF7E8F983E71F4A40F2E311FCF7E2F9E4
:1031500085E71C4A4FF4F671FCF7DCF98EE7194A53
:103160004FF4FA71FCF7D6F99CE7164A40F2FB11CE
:10317000FCF7D0F9A8E7134A40F20221FCF7CAF99C
:10318000B4E7104A40F20A21FCF7C4F9C3E70D4A3C
:1031900040F20E21FCF7BEF9C2E70A4A40F21221C2
:1031A000FCF7B8F9C1E7074A40F21621FCF7B2F97B
:1031B000C0E700BFEC9C02007C340020F12F02002D
:1031C0007D2C0200FC9C020000B583B004F030F8B6
:1031D00060BB052200216846FCF7BAF89DF8003074
:1031E00043F0010303F0F103032262F306136FF3CC
:1031F000C7138DF8003007238DF8013010238DF8A8
:1032000002309DF8033013438DF803309DF80430ED
:1032100013438DF80430684604F06CF860B90C482C
:1032200004F04EF870B903B05DF804FB094A40F2AF
:103230002221FCF76FF9CCE7064A40F23521FCF772
:1032400069F9ECE7034A4FF40E71FCF763F9EAE71A
:103250007D330200FC9C020008B504F099F800B927
:1032600008BD034A40F24521FCF754F9F8E700BFD6
:10327000FC9C020010B59AB03C2200210BA8FCF780
:1032800067F802238DF82C3001248DF82E40062398
:103290008DF82F30ADF83C40104B109320220021C8
:1032A00003A8FCF755F88DF80F404FF49673079379
:1032B000B423089300210091094B03AA0BA801F045
:1032C00083FA20B9012001F079FA1AB010BD054A3D
:1032D0004FF42271FCF71EF9F4E700BFB02F002075
:1032E000592E0200FC9C020010B582B00446104921
:1032F0000320FFF73DFB70B90DF107010020FFF738
:103300003FFC70B99DF80730022B14BF0023012346
:10331000237002B010BD074A4FF42671FCF7FAF88B
:10332000EAE7044A40F29B21FCF7F4F8EAE700BF21
:10333000812E0200FC9C02007047000008B5FFF7D8
:103340007EFC00B908BD034A40F2AF21FCF7E2F869
:10335000F8E700BFFC9C020008B520B9032001F08B
:10336000EBFA18B908BDFFF777FF08BD024A4FF422
:103370003071FCF7CFF8F5E7FC9C020000B583B094
:103380000378043B0A2B0ED8DFE803F006103C0D4F
:10339000240D2C1D340D210002A9002301F8043D49
:1033A000408803F0B3FF03B05DF804FBFDF712FEA5
:1033B0000E28F8D00828F6D00028F4D0154A572156
:1033C000FCF7A8F8EFE70020FFF7C6FFEBE703F0F4
:1033D000A1FFE8E700690028E5D00E4A6921FCF763
:1033E00099F8E0E780680028DDD00A4A6F21FCF7F1
:1033F00091F8D8E780680028D5D0064A7521FCF7F7
:1034000089F8D0E780680028CDD0024A7B21FCF7FC
:1034100081F8C8E7FC9C0200A0DF7047A2DF70477C
:10342000A6DF70472DE9F04391B0074688469146E4
:1034300008AE032200213046FBF78AFF9DF82030BA
:10344000012565F3030365F307138DF820309DF81C
:10345000213065F3030365F307138DF821309DF8E0
:10346000223065F342038DF822301C22002109A886
:10347000FBF76EFF9DF8243043F010038DF82430E5
:1034800000240A940C940D940E960F9401AE03221E
:1034900021463046FBF75CFF9DF8043003F0F00353
:1034A00064F307138DF804309DF8053003F0F00342
:1034B00064F307138DF805309DF8063065F3420379
:1034C00003F0E7032B438DF806308DF80A50ADF872
:1034D00008901422214603A8FBF73AFF02AB03939E
:1034E0000496ADF81440ADF816405423ADF81830EA
:1034F0000794434603AA09A9B888FFF78FFF11B0C4
:10350000BDE8F08310B582B004460B6803604FF647
:10351000FF73A0F84E3001208DF8060002A948F292
:103520005B0321F8043D221DFFF776FF034610B12F
:10353000184602B010BD48F27012A11D2046FFF7D8
:1035400071FF03460028F3D148F2711204F10E0115
:103550002046FFF767FF03460028E9D148F27212C0
:1035600004F116012046FFF75DFF03460028DFD176
:1035700048F2731204F11E012046FFF753FF034681
:103580000028D5D148F2741204F126012046FFF735
:1035900049FF03460028CBD148F2751204F12E01F1
:1035A0002046FFF73FFF03460028C1D148F27612BC
:1035B00004F136012046FFF735FF03460028B7D156
:1035C00048F2771204F13E012046FFF72BFF034635
:1035D0000028ADD148F2781204F146012046FFF7E9
:1035E00021FF0346A4E78B88A0F84E3070474FF6C2
:1035F000FF73A0F84E3070474B89022B00D0704704
:103600000368002BFBD010B582B0044601F10C001A
:1036100001F062FD40B100238DF80430236801A958
:103620002046984702B010BD01238DF80430F5E71D
:10363000CA8843899A4200D0704710B58C1D214634
:10364000FFF7DAFF10BD08B50B88112B07D0502B00
:1036500008D0102B00D008BDFFF7C5FF08BDFFF74D
:10366000C6FF08BDFFF7E4FFF5E770B588B08DE849
:103670000600BDF83060B0F84E104FF6FF72914270
:1036800003D10823184608B070BD1D460446ADF8A6
:103690000E60102200210DEB0200FBF759FEBDF871
:1036A0000030ADF8103001238DF812300023ADF852
:1036B00014300DF10E030693079504A9B4F84E00DB
:1036C000FFF7AEFE03460028DCD1BDF80E2096427F
:1036D000D8D00C23D6E700000122084B1A70084B03
:1036E000B3F84E204FF6FF739A4205D0054B1B7876
:1036F00013B10122044B1A70704700BFA738002095
:10370000AC3F0020C8350020CA3500200122014B03
:103710001A707047C935002010B584B0144B0FCB18
:103720008DE80F000B238DF8023011238DF8013046
:103730000C238DF800304FF00063029301238DF8C5
:103740000C3000230B4A69460B48FEF725FB50B9A5
:103750004FF0A0430322C3F834274FF40052C3F8BC
:10376000082504B010BD054A3D21FBF7D3FEEFE765
:10377000149D0200D9360200409D0200489D0200BF
:1037800000B583B00B4B1B69019303238DF8053003
:10379000094A01A91220FEF7AFF830B90121122021
:1037A000FEF700F903B05DF804FB044A5F21FBF764
:1037B000B1FEF3E7149D02000D370200489D0200A0
:1037C0004FF480424FF0A043C3F8082570474FF4F0
:1037D00080424FF0A043C3F80C257047F0B583B08A
:1037E00005460E461746144C1B2200212046FBF7C7
:1037F000AFFD0022114B1A704FF400524FF0A0435E
:10380000C3F80C2500972346324629460C48FEF79C
:10381000ABFB28B10B4AD421FBF77CFE00E020BFB4
:10382000064B1B78002BFAD04FF400524FF0A04308
:10383000C3F8082503B0F0BD70380020A738002079
:10384000409D0200489D02002DE9F04389B0FFF73A
:1038500063FFFFF795FF4FF0A0430324C3F84047F1
:10386000C3F83C47C3F838474FF48042C3F80C25EF
:103870004FF48032C3F808254FF40042C3F80825FE
:10388000664E3068664D674900BF00BF00BF00BF8D
:1038900000BF00BF00BF00BFA8422FD000BF00BFC5
:1038A00000BF00BF00BF00BF00BF00BF00BF00BF20
:1038B00000BF00BF00BF00BF00BF00BF00BF00BF10
:1038C00000BF00BF00BF00BF00BF00BF00BF00BF00
:1038D00000BF00BF00BF00BF00BF00BF00BF00BFF0
:1038E00000BF00BF00BF00BF00BF00BF00BF00BFE0
:1038F00000BF00BF00BF00BF00BF00BF0139C3D180
:10390000C3F80C2530684FF00208414600BF00BFE5
:1039100000BF00BF00BF00BF00BF00BFA8422FD044
:1039200000BF00BF00BF00BF00BF00BF00BF00BF9F
:1039300000BF00BF00BF00BF00BF00BF00BF00BF8F
:1039400000BF00BF00BF00BF00BF00BF00BF00BF7F
:1039500000BF00BF00BF00BF00BF00BF00BF00BF6F
:1039600000BF00BF00BF00BF00BF00BF00BF00BF5F
:1039700000BF00BF00BF00BF00BF00BF00BF00BF4F
:103980000139C3D1C3F808253268092300BF00BF3D
:1039900000BF00BF00BF00BF00BF00BFAA422FD0C2
:1039A00000BF00BF00BF00BF00BF00BF00BF00BF1F
:1039B00000BF00BF00BF00BF00BF00BF00BF00BF0F
:1039C00000BF00BF00BF00BF00BF00BF00BF00BFFF
:1039D00000BF00BF00BF00BF00BF00BF00BF00BFEF
:1039E00000BF00BF00BF00BF00BF00BF00BF00BFDF
:1039F00000BF00BF00BF00BF00BF00BF00BF00BFCF
:103A0000013BC3D108A8112300F8013D0022012188
:103A1000FFF7E4FE3268044B08E000BFC02F00202F
:103A20000024F400580F0200400D030000BF00BF47
:103A300000BF00BF00BF00BF00BF00BFAA422FD021
:103A400000BF00BF00BF00BF00BF00BF00BF00BF7E
:103A500000BF00BF00BF00BF00BF00BF00BF00BF6E
:103A600000BF00BF00BF00BF00BF00BF00BF00BF5E
:103A700000BF00BF00BF00BF00BF00BF00BF00BF4E
:103A800000BF00BF00BF00BF00BF00BF00BF00BF3E
:103A900000BF00BF00BF00BF00BF00BF00BF00BF2E
:103AA000013BC3D120238DF81C3000278DF81D70F9
:103AB0002246414607A8FFF791FEDFF8E09003ACED
:103AC00009F114030FCB07C423803A460E2103A843
:103AD000FFF784FE326842F2107300BF00BF00BFE0
:103AE00000BF00BF00BF00BF00BFAA422FD000BF71
:103AF00000BF00BF00BF00BF00BF00BF00BF00BFCE
:103B000000BF00BF00BF00BF00BF00BF00BF00BFBD
:103B100000BF00BF00BF00BF00BF00BF00BF00BFAD
:103B200000BF00BF00BF00BF00BF00BF00BF00BF9D
:103B300000BF00BF00BF00BF00BF00BF00BF00BF8D
:103B400000BF00BF00BF00BF00BF00BF00BF013B00
:103B5000C3D1D9F8243008A840F8183D3A460421CA
:103B6000FFF73CFEB9F8283008A820F81C3D0E22CB
:103B70004146FFF733FE08A8102300F81D3D3A46E2
:103B80000121FFF72BFEFFF722FE0122024B1A70E4
:103B900009B0BDE8F08300BFC8350020149D0200C5
:103BA00082B001EB4101C9B2435C8DF8003008449A
:103BB00043788DF8013083788DF80230009B002027
:103BC000DAB262F30700C3F3072262F30F20C3F3F4
:103BD000074363F3174002B0704700002DE9F84334
:103BE0001B2200215348FFF7F9FD534B1B78002B94
:103BF000FBD0524F3E68DFF8509106EB460409EBCC
:103C000004084F4D01212846FFF7CAFF09F80400B8
:103C1000C0F3072388F80130C0F3074088F802009A
:103C2000DFF8289109EB040802212846FFF7B8FFC6
:103C300009F80400C0F3072388F80130C0F30740F7
:103C400088F80200DFF8089109EB040803212846F0
:103C5000FFF7A6FF09F80400C0F3072388F8013036
:103C6000C0F3074088F80200DFF8E89009EB040889
:103C700004212846FFF794FF09F80400C0F3072346
:103C800088F80130C0F3074088F80200DFF8C890D8
:103C900009EB040805212846FFF782FF09F8040014
:103CA000C0F3072388F80130C0F3074088F802000A
:103CB000DFF8A89009EB040806212846FFF770FFFB
:103CC00009F80400C0F3072388F80130C0F3074067
:103CD00088F80200DFF8889009EB040807212846DD
:103CE000FFF75EFF09F80400C0F3072388F80130EE
:103CF000C0F3074088F80200DFF8689009EB040879
:103D000008212846FFF74CFF09F80400C0F30723F9
:103D100088F80130C0F3074088F8020001363E60A1
:103D20001B2E04D900223A600122064B1A70BDE80E
:103D3000F88300BF8C380020CA3500206C38002082
:103D400070380020CB350020CC35002020360020F4
:103D500074360020C83600201C3700207037002041
:103D6000C43700201838002030B585B002AC84E894
:103D70000300154654230093134694E806001248A6
:103D8000FFF773FC13280CD0D8B1082819D043F2E0
:103D90000143984215D00D4A4FF4AF71FBF7BAFBBF
:103DA0000FE000220A4B1A70094B1B78002BFBD046
:103DB000542300932B4604AA12E906000248FFF799
:103DC00054FC05B030BD00BFAC3F0020489D020050
:103DD000AC2F002010B51E4C1E4AD4F80E00D4F8AB
:103DE0001210FFF7C1FF1C4AD4F81600D4F81A10BD
:103DF000FFF7BAFF194AD4F81E00D4F82210FFF7D3
:103E0000B3FF174AD4F82600D4F82A10FFF7ACFF06
:103E1000144AD4F82E00D4F83210FFF7A5FF124A46
:103E2000D4F83600D4F83A10FFF79EFF0F4AD4F8C2
:103E30003E00D4F84210FFF797FF0D4AD4F8460031
:103E4000D4F84A10FFF790FF00220A4B1A7010BDF9
:103E5000AC3F0020CC3500202036002074360020F6
:103E6000C83600201C37002070370020C4370020DF
:103E700018380020CB35002000B583B0FFF75CFA7E
:103E8000FEF704FF0DF10700FFF72EFAFFF7D0F859
:103E9000FEF708FFFEF74CFFFFF7ECF9FEF758FFBF
:103EA000FFF7D2FCFEF788FFFFF78EF9FEF7B2FFAF
:103EB0009DF80700FFF750FA01E0FFF73FFA084BC3
:103EC0001B78002BF9D00022054B1A70FFF786FEF5
:103ED000044B1B78002BF0D0FFF77CFFEDE700BF11
:103EE000C9350020CB35002070B504460E46154676
:103EF000184804F055FF2146174804F051FF314699
:103F0000164804F04DFF2946154804F049FF44F2D5
:103F100001039C4211D044F202039C4207D129883C
:103F2000104804F03DFF69680F4804F039FF2A4645
:103F300031462046FBF7FEFA70BD2988094804F097
:103F40002FFF6968084804F02BFFA968074804F0B0
:103F500027FFECE7689D0200809D02009C9D020007
:103F6000B89D0200D49D0200E89D0200FC9D020065
:103F70006DDF704772DF704779DF70477DDF704714
:103F800064DF7047F0B583B00488012C4BD01488EF
:103F9000A51C9D4201D90C2346E00578012D1ED0B9
:103FA00015460E4607461C1BA4B2023CA4B202A949
:103FB00021F8024D108802303044FFF7DFFF03463E
:103FC00090BB3A78022A11D0012A15D0ADF80640EC
:103FD0000821BDF80620FE2A15D90C2324E04578D7
:103FE00025440235AB42DBD20C231DE0BDF80610A0
:103FF0008C42E9D30921ECE77A789442E6D3ADF814
:1040000006200821E5E72888013232542A88013247
:1040100092B22A80B1542A880132BDF8061011FAF2
:1040200082F22A8000E00723184603B0F0BD0B8817
:104030000433934202D90C231846704730B583B03D
:104040000C4605460DF10600FFF796FF0346A8B99A
:1040500022880321A9542288013292B22280192198
:10406000A9542288013292B22280BDF80610A81805
:10407000A954090A4170228802322280184603B0EE
:1040800030BD30B41488E51C9D4202D90C2030BCF0
:10409000704702230B55138801339BB21380012410
:1040A000CC54138823449BB21380C85413882344F0
:1040B00013800020EBE730B41488E51C9D4202D940
:1040C0000C2030BC704702230B55138801339BB280
:1040D00013800A24CC54138801339BB21380C85434
:1040E0001388013313800020EBE72DE9F04F85B0F2
:1040F00005468B46174699460E9EBDF83CA0338870
:1041000001934FF00008444611E0022126E0328876
:104110004A440DF10B0103A8FFF732FF03460028C4
:104120003DD19DF80B3032881344338001342B8805
:104130009C4228DA6B6853F82400039000220DF1AA
:104140000B0103A8FFF71CFF034640BB9DF80B3093
:10415000BB42EBD1B8F1000FD7D000213288134415
:104160000B4453450DDCB8F1000FD0D1013292B2AF
:10417000328009F802B03388013333804FF00108F0
:10418000C5E70C230BE0B8F1000F10D03388019A7B
:104190009B1A9BB2013B9BB2FF2B04D90C23184600
:1041A00005B0BDE8F08F09F802300023F7E70023DF
:1041B000F5E72DE9F04182B0064617469846089C7F
:1041C000BDF82450019500940222FFF78EFF0346AC
:1041D00018B1184602B0BDE8F0810195009443463D
:1041E000102239463046FFF780FF0346F1E7038887
:1041F000052B01D807207047A3F6814292B24FF2F7
:104200007D318A4201D8072070474288052A01D8AB
:1042100007207047A2F6814189B24FF27D3081427A
:1042200001D8072070474FF6FF718B4207D08A42B2
:1042300007D0934201D90720704700207047002023
:10424000704700207047F8B51788BC1D9C4202D902
:104250000C231846F8BD14460D460646FFF7C7FF67
:1042600003460028F5D10522EA552288013292B290
:1042700022801221A9542288013292B222803188F0
:10428000A818A954090A41702288023292B22280E9
:104290007188A818A954090A417022880232228024
:1042A000D7E7C37813F0040F01D10720704700202F
:1042B0007047C3780BB1072070470020704770B576
:1042C00082B00B880933934203D90C25284602B0EB
:1042D00070BD0C4606466846FFF74AFE05460028B4
:1042E000F4D123880822F254238801339BB223801F
:1042F0001B22F2542088013080B2208006220DF16A
:104300000101304404F041FD238806339BB2238031
:104310009DF8002012F0FE0F05D10022F2542388F0
:1043200001332380D2E70122F254F8E72DE9F0416E
:10433000848802341688A51902359D4202D90C20C2
:10434000BDE8F081FE2C02D90C20BDE8F0810134DB
:104350008C55138801339BB21380FF24CC541388EF
:1043600001339BB213800488CD18CC54240A6C709E
:1043700015880235ADB21580868896B187689FB1E1
:1043800090460B46044632463946581904F0FDFC67
:10439000A388B8F800201344A8F800300020BDE836
:1043A000F0810020BDE8F0810720BDE8F081836A3C
:1043B000002B3CD02DE9F04114460E4680460025E6
:1043C00001E00135EDB298F82C309D422CD2D8F89E
:1043D000281005EB45039A008F18BB880233FE2B8B
:1043E00027D8208801333354238801339BB223809C
:1043F0001620F054238801339BB223808A5AF11887
:10440000F254120A4A702088023080B22080BA88A2
:10441000002AD6D0B96879B1304404F0B6FCBB8824
:10442000228813442380CCE70020BDE8F0810720D8
:1044300070470C20BDE8F0810720BDE8F081F0B5A1
:1044400083B004460E46154617880023138090F863
:104450002D30002B3BD10023A278002A42D1E078F6
:10446000002848D1606848B13B462A46314690F959
:104470000000FFF720FE0346002830D12289002AE1
:1044800043D1228A002A4DD1228B002A57D1206A9B
:1044900030B13B462A463146FFF7D5FE0346F0B918
:1044A000606A30B13B462A463146FFF73FFF03467C
:1044B000A8B994F82C20002A4ED122787AB13B4634
:1044C0002A4631462046FFF75DFD034607E03A469F
:1044D00029463046FFF7F3FE03460028BCD01846B5
:1044E00003B0F0BD3A4629463046FFF7A0FD03462B
:1044F0000028B4D0F3E73B462A46314640B2FFF7E6
:10450000C0FD03460028ADD0E9E70197009533468A
:104510000622022104F10800FFF74BFE03460028A3
:10452000AFD0DCE70197009533460722032104F161
:104530001000FFF73EFE03460028A5D0CFE7019705
:10454000009533461522142104F11800FFF731FEBF
:10455000034600289BD0C2E73B462A463146204608
:10456000FFF725FF03460028A7D0B8E730B593B082
:104570000D461F23ADF84630ADF8443050B3044625
:10458000FFF78FFE034610B1184613B030BD0DF192
:10459000460209A92046FFF752FF03460028F3D13F
:1045A00009ACDDB12846FFF784FE03460028EBD1B5
:1045B00011AA01A92846FFF742FF03460028E3D1CC
:1045C00001AA9DF844309DF846102046FFF7D2FC22
:1045D0000346D9E70024ADF84640E2E70022ADF8F3
:1045E0004420EEE773DF704774DF7047014B1878A3
:1045F000704700BF803900200023052B03D8C25C20
:104600001AB90133F9E70020704701207047000014
:10461000421C054880FB0230D317C3EB600000EB5F
:104620008000101AC0B2704767666666C37B012BB4
:1046300000D070478288014B1A80FAE70A390020BF
:1046400010B504461148FFF7D7FF631E032B19D896
:10465000DFE803F002060C110D4B5B7803B198B94B
:104660000B4B9B7813B108B1022010BD084BDB78CF
:104670000BB1032010BD064B1B790BB1042010BDFC
:10468000002010BD002010BD204610BD493900207B
:10469000AC3800200346012204490A7004494160F5
:1046A0000270002098815881704700BFA838002010
:1046B000483900200222064B1A70064B4360012342
:1046C0000370054BDA6882819B6843810020704744
:1046D000A838002048390020AC380020144B1A6953
:1046E00042815A6982811B78E3B1124B1B78CBB9A6
:1046F00010B50446FFF77AFF28B903220E4B1A7053
:104700000023184610BD022323720C480423C370F3
:104710000021FFF72BFF03460028F2D10521064AAE
:104720001170EEE70322044B1A70002318467047FD
:10473000AC38002082390020A8380020CC38002076
:10474000144B9A694281DA6982811B78E3B1124B7A
:104750001B78CBB910B50446FFF748FF28B90422EF
:104760000E4B1A700023184610BD022323720C480A
:104770000423C3700021FFF7F9FE03460028F2D19D
:104780000621064A1170EEE70422044B1A7000233A
:1047900018467047AC38002082390020A838002025
:1047A000CC38002000B583B001A8FCF763FE019867
:1047B000003018BF012003B05DF804FB014B1870F6
:1047C000704700BF09390020002800F093802DE9D0
:1047D000F0410546002A00F08F809E460E460121DA
:1047E000474B19704FF00008464B83F80080464F46
:1047F00014460FCC0FC794E80F0087E80F00434B17
:1048000083F80080424BC3F800E0424B069A1A60DE
:104810004FF6FF72404B1A80072241463F48FAF795
:1048200097FD3F4C3C2241462046FAF791FD2B78FC
:104830002370AB78A370EB78E3706B78637004F14E
:10484000100305F1100292E8030083E8030004F16D
:10485000080305F1080292E8030083E80300183416
:1048600005F1180393E8030084E803006B6A9BB129
:104870002C4BA4F1180253622B4A9A606C6A22886E
:104880001A80A0889880434604E0A268D15C264A3A
:10489000D15401338342F8D3AB6ABBB1234B244AD2
:1048A0009A601F4A9362A86A8188998002881A8058
:1048B000002304E08268D45C1D4AD45401338B4247
:1048C000F8D395F82C20164B83F82C202B6A3BB19B
:1048D000184B134A13622A6A5188598012881A8029
:1048E0006B680BB10E4A536031460D48FFF73EFE30
:1048F000BDE8F0810E2070470E20BDE8F08100BFBA
:1049000014390020A9380020AC38002009390020D3
:10491000103900200C3900200A39002048390020C5
:10492000CC380020383900201839002050390020B8
:104930005C3900207C3900204A4B1B7813B90823CE
:104940001846704710B584B00446474B1870FFF7FF
:1049500029FF30B10122454B1A700023184604B0DC
:1049600010BD072200214248FAF7F2FC414B1B68B8
:1049700023F07F4323F0FF031BB13B4B1B78012B3C
:1049800028D03C4B9B781BB1374B1B78022B21D096
:104990002046FFF755FE344B1870374B1B681BB190
:1049A0000338C0B2012822D90022344B1A701022D9
:1049B00000216846FAF7CCFC00238DF800308DF812
:1049C0000830294B1B78042B25D8DFE803F03B2166
:1049D0002F333700284B1B682BB10121284A117057
:1049E00008209847D4E70022254B1A70D0E7214AC7
:1049F0001278002AD8D0234A1278002AD4D1002174
:104A0000214A117001211D4A117007209847CEE7F5
:104A10006846FFF73FFE144B1B78BBB9164B1B686B
:104A2000EBB11A4A10789847002397E76846FFF7DA
:104A300041FEF0E76846FFF751FEECE76846FFF7F6
:104A40007FFEE8E70022114B1A70E4E7104B19785B
:104A50006846FFF7C7FD03460028DFD07EE7002346
:104A60007CE700BF14390020A93800200839002055
:104A700048390020AC38002010390020813900204E
:104A8000443900208239002080390020A8380020D5
:104A90000939002008B50022094B1A708288094B99
:104AA0001B889A4200D008BD0120FFF745FF00286F
:104AB000F9D0054B1B68002BF5D09847F3E700BFF2
:104AC000823900200A3900200C39002008B5037A09
